{"abi":[{"type":"constructor","inputs":[{"name":"_mintPrice","type":"uint256","internalType":"uint256"}],"stateMutability":"nonpayable"},{"type":"function","name":"approve","inputs":[{"name":"to","type":"address","internalType":"address"},{"name":"tokenId","type":"uint256","internalType":"uint256"}],"outputs":[],"stateMutability":"nonpayable"},{"type":"function","name":"balanceOf","inputs":[{"name":"_owner","type":"address","internalType":"address"}],"outputs":[{"name":"","type":"uint256","internalType":"uint256"}],"stateMutability":"view"},{"type":"function","name":"getApproved","inputs":[{"name":"tokenId","type":"uint256","internalType":"uint256"}],"outputs":[{"name":"","type":"address","internalType":"address"}],"stateMutability":"view"},{"type":"function","name":"getArt","inputs":[{"name":"tokenId","type":"uint256","internalType":"uint256"}],"outputs":[{"name":"","type":"tuple","internalType":"struct OnChainArt.ArtPiece","components":[{"name":"title","type":"string","internalType":"string"},{"name":"svgData","type":"string","internalType":"string"},{"name":"artist","type":"address","internalType":"address"},{"name":"mintedAt","type":"uint256","internalType":"uint256"}]}],"stateMutability":"view"},{"type":"function","name":"isApprovedForAll","inputs":[{"name":"_owner","type":"address","internalType":"address"},{"name":"operator","type":"address","internalType":"address"}],"outputs":[{"name":"","type":"bool","internalType":"bool"}],"stateMutability":"view"},{"type":"function","name":"mint","inputs":[{"name":"title","type":"string","internalType":"string"},{"name":"svgData","type":"string","internalType":"string"}],"outputs":[{"name":"","type":"uint256","internalType":"uint256"}],"stateMutability":"payable"},{"type":"function","name":"mintPrice","inputs":[],"outputs":[{"name":"","type":"uint256","internalType":"uint256"}],"stateMutability":"view"},{"type":"function","name":"name","inputs":[],"outputs":[{"name":"","type":"string","internalType":"string"}],"stateMutability":"view"},{"type":"function","name":"owner","inputs":[],"outputs":[{"name":"","type":"address","internalType":"address"}],"stateMutability":"view"},{"type":"function","name":"ownerOf","inputs":[{"name":"tokenId","type":"uint256","internalType":"uint256"}],"outputs":[{"name":"","type":"address","internalType":"address"}],"stateMutability":"view"},{"type":"function","name":"safeTransferFrom","inputs":[{"name":"from","type":"address","internalType":"address"},{"name":"to","type":"address","internalType":"address"},{"name":"tokenId","type":"uint256","internalType":"uint256"}],"outputs":[],"stateMutability":"nonpayable"},{"type":"function","name":"safeTransferFrom","inputs":[{"name":"from","type":"address","internalType":"address"},{"name":"to","type":"address","internalType":"address"},{"name":"tokenId","type":"uint256","internalType":"uint256"},{"name":"data","type":"bytes","internalType":"bytes"}],"outputs":[],"stateMutability":"nonpayable"},{"type":"function","name":"setApprovalForAll","inputs":[{"name":"operator","type":"address","internalType":"address"},{"name":"approved","type":"bool","internalType":"bool"}],"outputs":[],"stateMutability":"nonpayable"},{"type":"function","name":"setMintPrice","inputs":[{"name":"newPrice","type":"uint256","internalType":"uint256"}],"outputs":[],"stateMutability":"nonpayable"},{"type":"function","name":"supportsInterface","inputs":[{"name":"interfaceId","type":"bytes4","internalType":"bytes4"}],"outputs":[{"name":"","type":"bool","internalType":"bool"}],"stateMutability":"pure"},{"type":"function","name":"symbol","inputs":[],"outputs":[{"name":"","type":"string","internalType":"string"}],"stateMutability":"view"},{"type":"function","name":"tokenURI","inputs":[{"name":"tokenId","type":"uint256","internalType":"uint256"}],"outputs":[{"name":"","type":"string","internalType":"string"}],"stateMutability":"view"},{"type":"function","name":"totalSupply","inputs":[],"outputs":[{"name":"","type":"uint256","internalType":"uint256"}],"stateMutability":"view"},{"type":"function","name":"transferFrom","inputs":[{"name":"from","type":"address","internalType":"address"},{"name":"to","type":"address","internalType":"address"},{"name":"tokenId","type":"uint256","internalType":"uint256"}],"outputs":[],"stateMutability":"nonpayable"},{"type":"function","name":"transferOwnership","inputs":[{"name":"newOwner","type":"address","internalType":"address"}],"outputs":[],"stateMutability":"nonpayable"},{"type":"function","name":"updateTitle","inputs":[{"name":"tokenId","type":"uint256","internalType":"uint256"},{"name":"newTitle","type":"string","internalType":"string"}],"outputs":[],"stateMutability":"nonpayable"},{"type":"function","name":"withdraw","inputs":[],"outputs":[],"stateMutability":"nonpayable"},{"type":"event","name":"Approval","inputs":[{"name":"owner","type":"address","indexed":true,"internalType":"address"},{"name":"approved","type":"address","indexed":true,"internalType":"address"},{"name":"tokenId","type":"uint256","indexed":true,"internalType":"uint256"}],"anonymous":false},{"type":"event","name":"ApprovalForAll","inputs":[{"name":"owner","type":"address","indexed":true,"internalType":"address"},{"name":"operator","type":"address","indexed":true,"internalType":"address"},{"name":"approved","type":"bool","indexed":false,"internalType":"bool"}],"anonymous":false},{"type":"event","name":"ArtMinted","inputs":[{"name":"tokenId","type":"uint256","indexed":true,"internalType":"uint256"},{"name":"artist","type":"address","indexed":true,"internalType":"address"},{"name":"title","type":"string","indexed":false,"internalType":"string"}],"anonymous":false},{"type":"event","name":"ArtUpdated","inputs":[{"name":"tokenId","type":"uint256","indexed":true,"internalType":"uint256"},{"name":"newTitle","type":"string","indexed":false,"internalType":"string"}],"anonymous":false},{"type":"event","name":"Transfer","inputs":[{"name":"from","type":"address","indexed":true,"internalType":"address"},{"name":"to","type":"address","indexed":true,"internalType":"address"},{"name":"tokenId","type":"uint256","indexed":true,"internalType":"uint256"}],"anonymous":false},{"type":"error","name":"EmptySVG","inputs":[]},{"type":"error","name":"EmptyTitle","inputs":[]},{"type":"error","name":"MintPriceRequired","inputs":[]},{"type":"error","name":"NotApproved","inputs":[]},{"type":"error","name":"NotOwner","inputs":[]},{"type":"error","name":"TokenDoesNotExist","inputs":[]},{"type":"error","name":"ZeroAddress","inputs":[]}],"bytecode":{"object":"0x60806040526040518060400160405280600a81526020017f4f6e436861696e417274000000000000000000000000000000000000000000008152505f90816100479190610355565b506040518060400160405280600381526020017f4f434100000000000000000000000000000000000000000000000000000000008152506001908161008c9190610355565b50348015610098575f5ffd5b506040516142f03803806142f083398181016040528101906100ba9190610452565b3360025f6101000a81548173ffffffffffffffffffffffffffffffffffffffff021916908373ffffffffffffffffffffffffffffffffffffffff160217905550806003819055505061047d565b5f81519050919050565b7f4e487b71000000000000000000000000000000000000000000000000000000005f52604160045260245ffd5b7f4e487b71000000000000000000000000000000000000000000000000000000005f52602260045260245ffd5b5f600282049050600182168061018257607f821691505b6020821081036101955761019461013e565b5b50919050565b5f819050815f5260205f209050919050565b5f6020601f8301049050919050565b5f82821b905092915050565b5f600883026101f77fffffffffffffffffffffffffffffffffffffffffffffffffffffffffffffffff826101bc565b61020186836101bc565b95508019841693508086168417925050509392505050565b5f819050919050565b5f819050919050565b5f61024561024061023b84610219565b610222565b610219565b9050919050565b5f819050919050565b61025e8361022b565b61027261026a8261024c565b8484546101c8565b825550505050565b5f5f905090565b61028961027a565b610294818484610255565b505050565b5f5b828110156102ba576102af5f828401610281565b60018101905061029b565b505050565b601f82111561030d578282111561030c576102d98161019b565b6102e2836101ad565b6102eb856101ad565b60208610156102f8575f90505b80830161030782840382610299565b505050505b5b505050565b5f82821c905092915050565b5f61032d5f1984600802610312565b1980831691505092915050565b5f610345838361031e565b9150826002028217905092915050565b61035e82610107565b67ffffffffffffffff81111561037757610376610111565b5b610381825461016b565b61038c8282856102bf565b5f60209050601f8311600181146103bd575f84156103ab578287015190505b6103b5858261033a565b86555061041c565b601f1984166103cb8661019b565b5f5b828110156103f2578489015182556001820191506020850194506020810190506103cd565b8683101561040f578489015161040b601f89168261031e565b8355505b6001600288020188555050505b505050505050565b5f5ffd5b61043181610219565b811461043b575f5ffd5b50565b5f8151905061044c81610428565b92915050565b5f6020828403121561046757610466610424565b5b5f6104748482850161043e565b91505092915050565b613e668061048a5f395ff3fe608060405260043610610134575f3560e01c806370a08231116100aa578063a22cb4651161006e578063a22cb4651461041c578063b88d4fde14610444578063c87b56dd1461046c578063e985e9c5146104a8578063f2fde38b146104e4578063f4a0a5281461050c57610134565b806370a08231146103205780638aa0fdad1461035c5780638c4796c71461038c5780638da5cb5b146103c857806395d89b41146103f257610134565b806323b872dd116100fc57806323b872dd1461022c5780633ccfd60b1461025457806342842e0e1461026a5780635786ead2146102925780636352211e146102ba5780636817c76c146102f657610134565b806301ffc9a71461013857806306fdde0314610174578063081812fc1461019e578063095ea7b3146101da57806318160ddd14610202575b5f5ffd5b348015610143575f5ffd5b5061015e60048036038101906101599190612bd7565b610534565b60405161016b9190612c1c565b60405180910390f35b34801561017f575f5ffd5b506101886105c5565b6040516101959190612ca5565b60405180910390f35b3480156101a9575f5ffd5b506101c460048036038101906101bf9190612cf8565b610650565b6040516101d19190612d62565b60405180910390f35b3480156101e5575f5ffd5b5061020060048036038101906101fb9190612da5565b610720565b005b34801561020d575f5ffd5b5061021661098f565b6040516102239190612df2565b60405180910390f35b348015610237575f5ffd5b50610252600480360381019061024d9190612e0b565b610998565b005b34801561025f575f5ffd5b50610268610e11565b005b348015610275575f5ffd5b50610290600480360381019061028b9190612e0b565b610f63565b005b34801561029d575f5ffd5b506102b860048036038101906102b39190612ebc565b610fd2565b005b3480156102c5575f5ffd5b506102e060048036038101906102db9190612cf8565b61119c565b6040516102ed9190612d62565b60405180910390f35b348015610301575f5ffd5b5061030a61126c565b6040516103179190612df2565b60405180910390f35b34801561032b575f5ffd5b5061034660048036038101906103419190612f19565b611272565b6040516103539190612df2565b60405180910390f35b61037660048036038101906103719190612f44565b61131d565b6040516103839190612df2565b60405180910390f35b348015610397575f5ffd5b506103b260048036038101906103ad9190612cf8565b61169c565b6040516103bf919061308f565b60405180910390f35b3480156103d3575f5ffd5b506103dc6118dc565b6040516103e99190612d62565b60405180910390f35b3480156103fd575f5ffd5b50610406611901565b6040516104139190612ca5565b60405180910390f35b348015610427575f5ffd5b50610442600480360381019061043d91906130d9565b61198d565b005b34801561044f575f5ffd5b5061046a6004803603810190610465919061316c565b611a85565b005b348015610477575f5ffd5b50610492600480360381019061048d9190612cf8565b61202c565b60405161049f9190612ca5565b60405180910390f35b3480156104b3575f5ffd5b506104ce60048036038101906104c991906131f0565b6122e8565b6040516104db9190612c1c565b60405180910390f35b3480156104ef575f5ffd5b5061050a60048036038101906105059190612f19565b612376565b005b348015610517575f5ffd5b50610532600480360381019061052d9190612cf8565b6124a4565b005b5f6380ac58cd60e01b827bffffffffffffffffffffffffffffffffffffffffffffffffffffffff1916148061058e5750635b5e139f60e01b827bffffffffffffffffffffffffffffffffffffffffffffffffffffffff1916145b806105be57506301ffc9a760e01b827bffffffffffffffffffffffffffffffffffffffffffffffffffffffff1916145b9050919050565b5f80546105d19061325b565b80601f01602080910402602001604051908101604052809291908181526020018280546105fd9061325b565b80156106485780601f1061061f57610100808354040283529160200191610648565b820191905f5260205f20905b81548152906001019060200180831161062b57829003601f168201915b505050505081565b5f815f73ffffffffffffffffffffffffffffffffffffffff1660065f8381526020019081526020015f205f9054906101000a900473ffffffffffffffffffffffffffffffffffffffff1673ffffffffffffffffffffffffffffffffffffffff16036106e7576040517fceea21b600000000000000000000000000000000000000000000000000000000815260040160405180910390fd5b60085f8481526020019081526020015f205f9054906101000a900473ffffffffffffffffffffffffffffffffffffffff16915050919050565b805f73ffffffffffffffffffffffffffffffffffffffff1660065f8381526020019081526020015f205f9054906101000a900473ffffffffffffffffffffffffffffffffffffffff1673ffffffffffffffffffffffffffffffffffffffff16036107b6576040517fceea21b600000000000000000000000000000000000000000000000000000000815260040160405180910390fd5b5f60065f8481526020019081526020015f205f9054906101000a900473ffffffffffffffffffffffffffffffffffffffff1690508073ffffffffffffffffffffffffffffffffffffffff163373ffffffffffffffffffffffffffffffffffffffff16141580156108a8575060095f8273ffffffffffffffffffffffffffffffffffffffff1673ffffffffffffffffffffffffffffffffffffffff1681526020019081526020015f205f3373ffffffffffffffffffffffffffffffffffffffff1673ffffffffffffffffffffffffffffffffffffffff1681526020019081526020015f205f9054906101000a900460ff16155b156108df576040517fc19f17a900000000000000000000000000000000000000000000000000000000815260040160405180910390fd5b8360085f8581526020019081526020015f205f6101000a81548173ffffffffffffffffffffffffffffffffffffffff021916908373ffffffffffffffffffffffffffffffffffffffff160217905550828473ffffffffffffffffffffffffffffffffffffffff168273ffffffffffffffffffffffffffffffffffffffff167f8c5be1e5ebec7d5bd14f71427d1e84f3dd0314c0f7b2291e5b200ac8c7c3b92560405160405180910390a450505050565b5f600454905090565b805f73ffffffffffffffffffffffffffffffffffffffff1660065f8381526020019081526020015f205f9054906101000a900473ffffffffffffffffffffffffffffffffffffffff1673ffffffffffffffffffffffffffffffffffffffff1603610a2e576040517fceea21b600000000000000000000000000000000000000000000000000000000815260040160405180910390fd5b5f73ffffffffffffffffffffffffffffffffffffffff168373ffffffffffffffffffffffffffffffffffffffff1603610a93576040517fd92e233d00000000000000000000000000000000000000000000000000000000815260040160405180910390fd5b5f60065f8481526020019081526020015f205f9054906101000a900473ffffffffffffffffffffffffffffffffffffffff1690508073ffffffffffffffffffffffffffffffffffffffff168573ffffffffffffffffffffffffffffffffffffffff1614610b2c576040517f30cd747100000000000000000000000000000000000000000000000000000000815260040160405180910390fd5b8073ffffffffffffffffffffffffffffffffffffffff163373ffffffffffffffffffffffffffffffffffffffff1614158015610bc4575060085f8481526020019081526020015f205f9054906101000a900473ffffffffffffffffffffffffffffffffffffffff1673ffffffffffffffffffffffffffffffffffffffff163373ffffffffffffffffffffffffffffffffffffffff1614155b8015610c52575060095f8273ffffffffffffffffffffffffffffffffffffffff1673ffffffffffffffffffffffffffffffffffffffff1681526020019081526020015f205f3373ffffffffffffffffffffffffffffffffffffffff1673ffffffffffffffffffffffffffffffffffffffff1681526020019081526020015f205f9054906101000a900460ff16155b15610c89576040517fc19f17a900000000000000000000000000000000000000000000000000000000815260040160405180910390fd5b60085f8481526020019081526020015f205f6101000a81549073ffffffffffffffffffffffffffffffffffffffff021916905560075f8673ffffffffffffffffffffffffffffffffffffffff1673ffffffffffffffffffffffffffffffffffffffff1681526020019081526020015f205f815480929190610d09906132b8565b919050555060075f8573ffffffffffffffffffffffffffffffffffffffff1673ffffffffffffffffffffffffffffffffffffffff1681526020019081526020015f205f815480929190610d5b906132df565b91905055508360065f8581526020019081526020015f205f6101000a81548173ffffffffffffffffffffffffffffffffffffffff021916908373ffffffffffffffffffffffffffffffffffffffff160217905550828473ffffffffffffffffffffffffffffffffffffffff168673ffffffffffffffffffffffffffffffffffffffff167fddf252ad1be2c89b69c2b068fc378daa952ba7f163c4a11628f55a4df523b3ef60405160405180910390a45050505050565b60025f9054906101000a900473ffffffffffffffffffffffffffffffffffffffff1673ffffffffffffffffffffffffffffffffffffffff163373ffffffffffffffffffffffffffffffffffffffff1614610e97576040517f30cd747100000000000000000000000000000000000000000000000000000000815260040160405180910390fd5b5f60025f9054906101000a900473ffffffffffffffffffffffffffffffffffffffff1673ffffffffffffffffffffffffffffffffffffffff1647604051610edd90613353565b5f6040518083038185875af1925050503d805f8114610f17576040519150601f19603f3d011682016040523d82523d5f602084013e610f1c565b606091505b5050905080610f60576040517f08c379a0000000000000000000000000000000000000000000000000000000008152600401610f57906133b1565b60405180910390fd5b50565b3073ffffffffffffffffffffffffffffffffffffffff1663b88d4fde8484846040518463ffffffff1660e01b8152600401610fa0939291906133ff565b5f604051808303815f87803b158015610fb7575f5ffd5b505af1158015610fc9573d5f5f3e3d5ffd5b50505050505050565b825f73ffffffffffffffffffffffffffffffffffffffff1660065f8381526020019081526020015f205f9054906101000a900473ffffffffffffffffffffffffffffffffffffffff1673ffffffffffffffffffffffffffffffffffffffff1603611068576040517fceea21b600000000000000000000000000000000000000000000000000000000815260040160405180910390fd5b3373ffffffffffffffffffffffffffffffffffffffff1660065f8681526020019081526020015f205f9054906101000a900473ffffffffffffffffffffffffffffffffffffffff1673ffffffffffffffffffffffffffffffffffffffff16146110fd576040517f30cd747100000000000000000000000000000000000000000000000000000000815260040160405180910390fd5b5f8383905003611139576040517fa5bb9bde00000000000000000000000000000000000000000000000000000000815260040160405180910390fd5b828260055f8781526020019081526020015f205f01918261115b92919061362f565b50837f68ae8a6d0e3f4495e966a06dc6c9eaa36d9ffc4d2521cbf8652cda87b04745ce848460405161118e929190613736565b60405180910390a250505050565b5f815f73ffffffffffffffffffffffffffffffffffffffff1660065f8381526020019081526020015f205f9054906101000a900473ffffffffffffffffffffffffffffffffffffffff1673ffffffffffffffffffffffffffffffffffffffff1603611233576040517fceea21b600000000000000000000000000000000000000000000000000000000815260040160405180910390fd5b60065f8481526020019081526020015f205f9054906101000a900473ffffffffffffffffffffffffffffffffffffffff16915050919050565b60035481565b5f5f73ffffffffffffffffffffffffffffffffffffffff168273ffffffffffffffffffffffffffffffffffffffff16036112d8576040517fd92e233d00000000000000000000000000000000000000000000000000000000815260040160405180910390fd5b60075f8373ffffffffffffffffffffffffffffffffffffffff1673ffffffffffffffffffffffffffffffffffffffff1681526020019081526020015f20549050919050565b5f5f600354118015611330575060035434105b15611367576040517f340ba4fd00000000000000000000000000000000000000000000000000000000815260040160405180910390fd5b5f85859050036113a3576040517fa5bb9bde00000000000000000000000000000000000000000000000000000000815260040160405180910390fd5b5f83839050036113df576040517f8138681c00000000000000000000000000000000000000000000000000000000815260040160405180910390fd5b5f60045f8154809291906113f2906132df565b9190505590503360065f8381526020019081526020015f205f6101000a81548173ffffffffffffffffffffffffffffffffffffffff021916908373ffffffffffffffffffffffffffffffffffffffff16021790555060075f3373ffffffffffffffffffffffffffffffffffffffff1673ffffffffffffffffffffffffffffffffffffffff1681526020019081526020015f205f815480929190611494906132df565b9190505550604051806080016040528087878080601f0160208091040260200160405190810160405280939291908181526020018383808284375f81840152601f19601f82011690508083019250505050505050815260200185858080601f0160208091040260200160405190810160405280939291908181526020018383808284375f81840152601f19601f8201169050808301925050505050505081526020013373ffffffffffffffffffffffffffffffffffffffff1681526020014281525060055f8381526020019081526020015f205f820151815f01908161157a9190613758565b5060208201518160010190816115909190613758565b506040820151816002015f6101000a81548173ffffffffffffffffffffffffffffffffffffffff021916908373ffffffffffffffffffffffffffffffffffffffff16021790555060608201518160030155905050803373ffffffffffffffffffffffffffffffffffffffff165f73ffffffffffffffffffffffffffffffffffffffff167fddf252ad1be2c89b69c2b068fc378daa952ba7f163c4a11628f55a4df523b3ef60405160405180910390a43373ffffffffffffffffffffffffffffffffffffffff16817f44b9b173f92ff75c9e81fd3b4edcef39c340a6752bc150b70fc41d39a97097378888604051611688929190613736565b60405180910390a380915050949350505050565b6116a4612b3e565b815f73ffffffffffffffffffffffffffffffffffffffff1660065f8381526020019081526020015f205f9054906101000a900473ffffffffffffffffffffffffffffffffffffffff1673ffffffffffffffffffffffffffffffffffffffff160361173a576040517fceea21b600000000000000000000000000000000000000000000000000000000815260040160405180910390fd5b60055f8481526020019081526020015f206040518060800160405290815f820180546117659061325b565b80601f01602080910402602001604051908101604052809291908181526020018280546117919061325b565b80156117dc5780601f106117b3576101008083540402835291602001916117dc565b820191905f5260205f20905b8154815290600101906020018083116117bf57829003601f168201915b505050505081526020016001820180546117f59061325b565b80601f01602080910402602001604051908101604052809291908181526020018280546118219061325b565b801561186c5780601f106118435761010080835404028352916020019161186c565b820191905f5260205f20905b81548152906001019060200180831161184f57829003601f168201915b50505050508152602001600282015f9054906101000a900473ffffffffffffffffffffffffffffffffffffffff1673ffffffffffffffffffffffffffffffffffffffff1673ffffffffffffffffffffffffffffffffffffffff168152602001600382015481525050915050919050565b60025f9054906101000a900473ffffffffffffffffffffffffffffffffffffffff1681565b6001805461190e9061325b565b80601f016020809104026020016040519081016040528092919081815260200182805461193a9061325b565b80156119855780601f1061195c57610100808354040283529160200191611985565b820191905f5260205f20905b81548152906001019060200180831161196857829003601f168201915b505050505081565b8060095f3373ffffffffffffffffffffffffffffffffffffffff1673ffffffffffffffffffffffffffffffffffffffff1681526020019081526020015f205f8473ffffffffffffffffffffffffffffffffffffffff1673ffffffffffffffffffffffffffffffffffffffff1681526020019081526020015f205f6101000a81548160ff0219169083151502179055508173ffffffffffffffffffffffffffffffffffffffff163373ffffffffffffffffffffffffffffffffffffffff167f17307eab39ab6107e8899845ad3d59bd9653f200f220920489ca2b5937696c3183604051611a799190612c1c565b60405180910390a35050565b825f73ffffffffffffffffffffffffffffffffffffffff1660065f8381526020019081526020015f205f9054906101000a900473ffffffffffffffffffffffffffffffffffffffff1673ffffffffffffffffffffffffffffffffffffffff1603611b1b576040517fceea21b600000000000000000000000000000000000000000000000000000000815260040160405180910390fd5b5f73ffffffffffffffffffffffffffffffffffffffff168573ffffffffffffffffffffffffffffffffffffffff1603611b80576040517fd92e233d00000000000000000000000000000000000000000000000000000000815260040160405180910390fd5b5f60065f8681526020019081526020015f205f9054906101000a900473ffffffffffffffffffffffffffffffffffffffff1690508073ffffffffffffffffffffffffffffffffffffffff168773ffffffffffffffffffffffffffffffffffffffff1614611c19576040517f30cd747100000000000000000000000000000000000000000000000000000000815260040160405180910390fd5b8073ffffffffffffffffffffffffffffffffffffffff163373ffffffffffffffffffffffffffffffffffffffff1614158015611cb1575060085f8681526020019081526020015f205f9054906101000a900473ffffffffffffffffffffffffffffffffffffffff1673ffffffffffffffffffffffffffffffffffffffff163373ffffffffffffffffffffffffffffffffffffffff1614155b8015611d3f575060095f8273ffffffffffffffffffffffffffffffffffffffff1673ffffffffffffffffffffffffffffffffffffffff1681526020019081526020015f205f3373ffffffffffffffffffffffffffffffffffffffff1673ffffffffffffffffffffffffffffffffffffffff1681526020019081526020015f205f9054906101000a900460ff16155b15611d76576040517fc19f17a900000000000000000000000000000000000000000000000000000000815260040160405180910390fd5b60085f8681526020019081526020015f205f6101000a81549073ffffffffffffffffffffffffffffffffffffffff021916905560075f8873ffffffffffffffffffffffffffffffffffffffff1673ffffffffffffffffffffffffffffffffffffffff1681526020019081526020015f205f815480929190611df6906132b8565b919050555060075f8773ffffffffffffffffffffffffffffffffffffffff1673ffffffffffffffffffffffffffffffffffffffff1681526020019081526020015f205f815480929190611e48906132df565b91905055508560065f8781526020019081526020015f205f6101000a81548173ffffffffffffffffffffffffffffffffffffffff021916908373ffffffffffffffffffffffffffffffffffffffff160217905550848673ffffffffffffffffffffffffffffffffffffffff168873ffffffffffffffffffffffffffffffffffffffff167fddf252ad1be2c89b69c2b068fc378daa952ba7f163c4a11628f55a4df523b3ef60405160405180910390a45f8673ffffffffffffffffffffffffffffffffffffffff163b1115612023575f8673ffffffffffffffffffffffffffffffffffffffff1663150b7a02338a8989896040518663ffffffff1660e01b8152600401611f58959493929190613853565b6020604051808303815f875af1158015611f74573d5f5f3e3d5ffd5b505050506040513d601f19601f82011682018060405250810190611f9891906138b3565b905063150b7a0260e01b7bffffffffffffffffffffffffffffffffffffffffffffffffffffffff1916817bffffffffffffffffffffffffffffffffffffffffffffffffffffffff191614612021576040517f08c379a000000000000000000000000000000000000000000000000000000000815260040161201890613928565b60405180910390fd5b505b50505050505050565b6060815f73ffffffffffffffffffffffffffffffffffffffff1660065f8381526020019081526020015f205f9054906101000a900473ffffffffffffffffffffffffffffffffffffffff1673ffffffffffffffffffffffffffffffffffffffff16036120c4576040517fceea21b600000000000000000000000000000000000000000000000000000000815260040160405180910390fd5b5f60055f8581526020019081526020015f206040518060800160405290815f820180546120f09061325b565b80601f016020809104026020016040519081016040528092919081815260200182805461211c9061325b565b80156121675780601f1061213e57610100808354040283529160200191612167565b820191905f5260205f20905b81548152906001019060200180831161214a57829003601f168201915b505050505081526020016001820180546121809061325b565b80601f01602080910402602001604051908101604052809291908181526020018280546121ac9061325b565b80156121f75780601f106121ce576101008083540402835291602001916121f7565b820191905f5260205f20905b8154815290600101906020018083116121da57829003601f168201915b50505050508152602001600282015f9054906101000a900473ffffffffffffffffffffffffffffffffffffffff1673ffffffffffffffffffffffffffffffffffffffff1673ffffffffffffffffffffffffffffffffffffffff16815260200160038201548152505090505f61226f8260200151612534565b90505f825f01518261228485604001516126fb565b61229186606001516129e6565b6040516020016122a49493929190613bb0565b60405160208183030381529060405290506122be81612534565b6040516020016122ce9190613c6e565b604051602081830303815290604052945050505050919050565b5f60095f8473ffffffffffffffffffffffffffffffffffffffff1673ffffffffffffffffffffffffffffffffffffffff1681526020019081526020015f205f8373ffffffffffffffffffffffffffffffffffffffff1673ffffffffffffffffffffffffffffffffffffffff1681526020019081526020015f205f9054906101000a900460ff16905092915050565b60025f9054906101000a900473ffffffffffffffffffffffffffffffffffffffff1673ffffffffffffffffffffffffffffffffffffffff163373ffffffffffffffffffffffffffffffffffffffff16146123fc576040517f30cd747100000000000000000000000000000000000000000000000000000000815260040160405180910390fd5b5f73ffffffffffffffffffffffffffffffffffffffff168173ffffffffffffffffffffffffffffffffffffffff1603612461576040517fd92e233d00000000000000000000000000000000000000000000000000000000815260040160405180910390fd5b8060025f6101000a81548173ffffffffffffffffffffffffffffffffffffffff021916908373ffffffffffffffffffffffffffffffffffffffff16021790555050565b60025f9054906101000a900473ffffffffffffffffffffffffffffffffffffffff1673ffffffffffffffffffffffffffffffffffffffff163373ffffffffffffffffffffffffffffffffffffffff161461252a576040517f30cd747100000000000000000000000000000000000000000000000000000000815260040160405180910390fd5b8060038190555050565b60605f8251036125545760405180602001604052805f81525090506126f6565b5f6003600284516125659190613c8f565b61256f9190613cef565b600461257b9190613d1f565b90505f8167ffffffffffffffff81111561259857612597613451565b5b6040519080825280601f01601f1916602001820160405280156125ca5781602001600182028036833780820191505090505b5090505f604051806060016040528060408152602001613df160409139905060018101602083015f8751602089015b818310156126b5576003830192505f6003848403105f81146126435767fffffffffffffffe85850314600286038401515f1a60081b600387038501515f1a60101b17925050612669565b600185038301515f1a600286038401515f1a60081b600387038501515f1a60101b171791505b50603f8160121c168601518553600185019450603f81600c1c168601518553600185019450603f8160061c168601518553600185019450603f81168601518553600185019450506125f9565b60038206600181146126ce57600281146126e1576126e9565b603d6001860353603d60028603536126e9565b603d60018603535b5050505050508193505050505b919050565b60605f6040518060400160405280601081526020017f303132333435363738396162636465660000000000000000000000000000000081525090505f602a67ffffffffffffffff81111561275257612751613451565b5b6040519080825280601f01601f1916602001820160405280156127845781602001600182028036833780820191505090505b5090507f3000000000000000000000000000000000000000000000000000000000000000815f815181106127bb576127ba613d60565b5b60200101907effffffffffffffffffffffffffffffffffffffffffffffffffffffffffffff191690815f1a9053507f78000000000000000000000000000000000000000000000000000000000000008160018151811061281e5761281d613d60565b5b60200101907effffffffffffffffffffffffffffffffffffffffffffffffffffffffffffff191690815f1a9053505f5f90505b60148110156129db5782600f82600261286a9190613d1f565b60276128769190613d8d565b60046128829190613d1f565b8773ffffffffffffffffffffffffffffffffffffffff16901c1660ff16815181106128b0576128af613d60565b5b602001015160f81c60f81b826002836128c99190613d1f565b60026128d59190613c8f565b815181106128e6576128e5613d60565b5b60200101907effffffffffffffffffffffffffffffffffffffffffffffffffffffffffffff191690815f1a90535082600f8260026129249190613d1f565b60266129309190613d8d565b600461293c9190613d1f565b8773ffffffffffffffffffffffffffffffffffffffff16901c1660ff168151811061296a57612969613d60565b5b602001015160f81c60f81b826002836129839190613d1f565b600361298f9190613c8f565b815181106129a05761299f613d60565b5b60200101907effffffffffffffffffffffffffffffffffffffffffffffffffffffffffffff191690815f1a9053508080600101915050612851565b508092505050919050565b60605f8203612a2c576040518060400160405280600181526020017f30000000000000000000000000000000000000000000000000000000000000008152509050612b39565b5f8290505f5b5f8214612a5b578080612a44906132df565b915050600a82612a549190613cef565b9150612a32565b5f8167ffffffffffffffff811115612a7657612a75613451565b5b6040519080825280601f01601f191660200182016040528015612aa85781602001600182028036833780820191505090505b5090505b5f8514612b32578180612abe906132b8565b925050600a85612ace9190613dc0565b6030612ada9190613c8f565b60f81b818381518110612af057612aef613d60565b5b60200101907effffffffffffffffffffffffffffffffffffffffffffffffffffffffffffff191690815f1a905350600a85612b2b9190613cef565b9450612aac565b8093505050505b919050565b604051806080016040528060608152602001606081526020015f73ffffffffffffffffffffffffffffffffffffffff1681526020015f81525090565b5f5ffd5b5f5ffd5b5f7fffffffff0000000000000000000000000000000000000000000000000000000082169050919050565b612bb681612b82565b8114612bc0575f5ffd5b50565b5f81359050612bd181612bad565b92915050565b5f60208284031215612bec57612beb612b7a565b5b5f612bf984828501612bc3565b91505092915050565b5f8115159050919050565b612c1681612c02565b82525050565b5f602082019050612c2f5f830184612c0d565b92915050565b5f81519050919050565b5f82825260208201905092915050565b8281835e5f83830152505050565b5f601f19601f8301169050919050565b5f612c7782612c35565b612c818185612c3f565b9350612c91818560208601612c4f565b612c9a81612c5d565b840191505092915050565b5f6020820190508181035f830152612cbd8184612c6d565b905092915050565b5f819050919050565b612cd781612cc5565b8114612ce1575f5ffd5b50565b5f81359050612cf281612cce565b92915050565b5f60208284031215612d0d57612d0c612b7a565b5b5f612d1a84828501612ce4565b91505092915050565b5f73ffffffffffffffffffffffffffffffffffffffff82169050919050565b5f612d4c82612d23565b9050919050565b612d5c81612d42565b82525050565b5f602082019050612d755f830184612d53565b92915050565b612d8481612d42565b8114612d8e575f5ffd5b50565b5f81359050612d9f81612d7b565b92915050565b5f5f60408385031215612dbb57612dba612b7a565b5b5f612dc885828601612d91565b9250506020612dd985828601612ce4565b9150509250929050565b612dec81612cc5565b82525050565b5f602082019050612e055f830184612de3565b92915050565b5f5f5f60608486031215612e2257612e21612b7a565b5b5f612e2f86828701612d91565b9350506020612e4086828701612d91565b9250506040612e5186828701612ce4565b9150509250925092565b5f5ffd5b5f5ffd5b5f5ffd5b5f5f83601f840112612e7c57612e7b612e5b565b5b8235905067ffffffffffffffff811115612e9957612e98612e5f565b5b602083019150836001820283011115612eb557612eb4612e63565b5b9250929050565b5f5f5f60408486031215612ed357612ed2612b7a565b5b5f612ee086828701612ce4565b935050602084013567ffffffffffffffff811115612f0157612f00612b7e565b5b612f0d86828701612e67565b92509250509250925092565b5f60208284031215612f2e57612f2d612b7a565b5b5f612f3b84828501612d91565b91505092915050565b5f5f5f5f60408587031215612f5c57612f5b612b7a565b5b5f85013567ffffffffffffffff811115612f7957612f78612b7e565b5b612f8587828801612e67565b9450945050602085013567ffffffffffffffff811115612fa857612fa7612b7e565b5b612fb487828801612e67565b925092505092959194509250565b5f82825260208201905092915050565b5f612fdc82612c35565b612fe68185612fc2565b9350612ff6818560208601612c4f565b612fff81612c5d565b840191505092915050565b61301381612d42565b82525050565b61302281612cc5565b82525050565b5f608083015f8301518482035f8601526130428282612fd2565b9150506020830151848203602086015261305c8282612fd2565b9150506040830151613071604086018261300a565b5060608301516130846060860182613019565b508091505092915050565b5f6020820190508181035f8301526130a78184613028565b905092915050565b6130b881612c02565b81146130c2575f5ffd5b50565b5f813590506130d3816130af565b92915050565b5f5f604083850312156130ef576130ee612b7a565b5b5f6130fc85828601612d91565b925050602061310d858286016130c5565b9150509250929050565b5f5f83601f84011261312c5761312b612e5b565b5b8235905067ffffffffffffffff81111561314957613148612e5f565b5b60208301915083600182028301111561316557613164612e63565b5b9250929050565b5f5f5f5f5f6080868803121561318557613184612b7a565b5b5f61319288828901612d91565b95505060206131a388828901612d91565b94505060406131b488828901612ce4565b935050606086013567ffffffffffffffff8111156131d5576131d4612b7e565b5b6131e188828901613117565b92509250509295509295909350565b5f5f6040838503121561320657613205612b7a565b5b5f61321385828601612d91565b925050602061322485828601612d91565b9150509250929050565b7f4e487b71000000000000000000000000000000000000000000000000000000005f52602260045260245ffd5b5f600282049050600182168061327257607f821691505b6020821081036132855761328461322e565b5b50919050565b7f4e487b71000000000000000000000000000000000000000000000000000000005f52601160045260245ffd5b5f6132c282612cc5565b91505f82036132d4576132d361328b565b5b600182039050919050565b5f6132e982612cc5565b91507fffffffffffffffffffffffffffffffffffffffffffffffffffffffffffffffff820361331b5761331a61328b565b5b600182019050919050565b5f81905092915050565b50565b5f61333e5f83613326565b915061334982613330565b5f82019050919050565b5f61335d82613333565b9150819050919050565b7f5769746864726177206661696c656400000000000000000000000000000000005f82015250565b5f61339b600f83612c3f565b91506133a682613367565b602082019050919050565b5f6020820190508181035f8301526133c88161338f565b9050919050565b5f82825260208201905092915050565b5f6133ea5f836133cf565b91506133f582613330565b5f82019050919050565b5f6080820190506134125f830186612d53565b61341f6020830185612d53565b61342c6040830184612de3565b818103606083015261343d816133df565b9050949350505050565b5f82905092915050565b7f4e487b71000000000000000000000000000000000000000000000000000000005f52604160045260245ffd5b5f819050815f5260205f209050919050565b5f6020601f8301049050919050565b5f82821b905092915050565b5f600883026134da7fffffffffffffffffffffffffffffffffffffffffffffffffffffffffffffffff8261349f565b6134e4868361349f565b95508019841693508086168417925050509392505050565b5f819050919050565b5f61351f61351a61351584612cc5565b6134fc565b612cc5565b9050919050565b5f819050919050565b61353883613505565b61354c61354482613526565b8484546134ab565b825550505050565b5f5f905090565b613563613554565b61356e81848461352f565b505050565b5f5b82811015613594576135895f82840161355b565b600181019050613575565b505050565b601f8211156135e757828211156135e6576135b38161347e565b6135bc83613490565b6135c585613490565b60208610156135d2575f90505b8083016135e182840382613573565b505050505b5b505050565b5f82821c905092915050565b5f6136075f19846008026135ec565b1980831691505092915050565b5f61361f83836135f8565b9150826002028217905092915050565b6136398383613447565b67ffffffffffffffff81111561365257613651613451565b5b61365c825461325b565b613667828285613599565b5f601f831160018114613694575f8415613682578287013590505b61368c8582613614565b8655506136f3565b601f1984166136a28661347e565b5f5b828110156136c9578489013582556001820191506020850194506020810190506136a4565b868310156136e657848901356136e2601f8916826135f8565b8355505b6001600288020188555050505b50505050505050565b828183375f83830152505050565b5f6137158385612c3f565b93506137228385846136fc565b61372b83612c5d565b840190509392505050565b5f6020820190508181035f83015261374f81848661370a565b90509392505050565b61376182612c35565b67ffffffffffffffff81111561377a57613779613451565b5b613784825461325b565b61378f828285613599565b5f60209050601f8311600181146137c0575f84156137ae578287015190505b6137b88582613614565b86555061381f565b601f1984166137ce8661347e565b5f5b828110156137f5578489015182556001820191506020850194506020810190506137d0565b86831015613812578489015161380e601f8916826135f8565b8355505b6001600288020188555050505b505050505050565b5f61383283856133cf565b935061383f8385846136fc565b61384883612c5d565b840190509392505050565b5f6080820190506138665f830188612d53565b6138736020830187612d53565b6138806040830186612de3565b8181036060830152613893818486613827565b90509695505050505050565b5f815190506138ad81612bad565b92915050565b5f602082840312156138c8576138c7612b7a565b5b5f6138d58482850161389f565b91505092915050565b7f4552433732313a20756e7361666520726563697069656e7400000000000000005f82015250565b5f613912601883612c3f565b915061391d826138de565b602082019050919050565b5f6020820190508181035f83015261393f81613906565b9050919050565b5f81905092915050565b7f7b226e616d65223a2200000000000000000000000000000000000000000000005f82015250565b5f613984600983613946565b915061398f82613950565b600982019050919050565b5f6139a482612c35565b6139ae8185613946565b93506139be818560208601612c4f565b80840191505092915050565b7f222c226465736372697074696f6e223a224f6e2d636861696e2067656e6572615f8201527f7469766520617274206d696e746564206f6e204f6e436861696e417274222c2260208201527f696d616765223a22646174613a696d6167652f7376672b786d6c3b626173653660408201527f342c000000000000000000000000000000000000000000000000000000000000606082015250565b5f613a70606283613946565b9150613a7b826139ca565b606282019050919050565b7f222c2261747472696275746573223a5b7b2274726169745f74797065223a22415f8201527f7274697374222c2276616c7565223a2200000000000000000000000000000000602082015250565b5f613ae0603083613946565b9150613aeb82613a86565b603082019050919050565b7f227d2c7b2274726169745f74797065223a224d696e746564204174222c2276615f8201527f6c7565223a000000000000000000000000000000000000000000000000000000602082015250565b5f613b50602583613946565b9150613b5b82613af6565b602582019050919050565b7f7d5d7d00000000000000000000000000000000000000000000000000000000005f82015250565b5f613b9a600383613946565b9150613ba582613b66565b600382019050919050565b5f613bba82613978565b9150613bc6828761399a565b9150613bd182613a64565b9150613bdd828661399a565b9150613be882613ad4565b9150613bf4828561399a565b9150613bff82613b44565b9150613c0b828461399a565b9150613c1682613b8e565b915081905095945050505050565b7f646174613a6170706c69636174696f6e2f6a736f6e3b6261736536342c0000005f82015250565b5f613c58601d83613946565b9150613c6382613c24565b601d82019050919050565b5f613c7882613c4c565b9150613c84828461399a565b915081905092915050565b5f613c9982612cc5565b9150613ca483612cc5565b9250828201905080821115613cbc57613cbb61328b565b5b92915050565b7f4e487b71000000000000000000000000000000000000000000000000000000005f52601260045260245ffd5b5f613cf982612cc5565b9150613d0483612cc5565b925082613d1457613d13613cc2565b5b828204905092915050565b5f613d2982612cc5565b9150613d3483612cc5565b9250828202613d4281612cc5565b91508282048414831517613d5957613d5861328b565b5b5092915050565b7f4e487b71000000000000000000000000000000000000000000000000000000005f52603260045260245ffd5b5f613d9782612cc5565b9150613da283612cc5565b9250828203905081811115613dba57613db961328b565b5b92915050565b5f613dca82612cc5565b9150613dd583612cc5565b925082613de557613de4613cc2565b5b82820690509291505056fe4142434445464748494a4b4c4d4e4f505152535455565758595a6162636465666768696a6b6c6d6e6f707172737475767778797a303132333435363738392b2fa2646970667358221220f89b92d500d5f19cb223be98933587088ead3df97969b23f8a6fe36cd807beae64736f6c63430008220033","linkReferences":{}},"methodIdentifiers":{"approve(address,uint256)":"095ea7b3","balanceOf(address)":"70a08231","getApproved(uint256)":"081812fc","getArt(uint256)":"8c4796c7","isApprovedForAll(address,address)":"e985e9c5","mint(string,string)":"8aa0fdad","mintPrice()":"6817c76c","name()":"06fdde03","owner()":"8da5cb5b","ownerOf(uint256)":"6352211e","safeTransferFrom(address,address,uint256)":"42842e0e","safeTransferFrom(address,address,uint256,bytes)":"b88d4fde","setApprovalForAll(address,bool)":"a22cb465","setMintPrice(uint256)":"f4a0a528","supportsInterface(bytes4)":"01ffc9a7","symbol()":"95d89b41","tokenURI(uint256)":"c87b56dd","totalSupply()":"18160ddd","transferFrom(address,address,uint256)":"23b872dd","transferOwnership(address)":"f2fde38b","updateTitle(uint256,string)":"5786ead2","withdraw()":"3ccfd60b"},"id":21}